:020000040000fa
:080000000001040000000000f3
:020000040000fa
:10020000ef8b20000e7922000e0188000000000014
:100210000c00070080712000010020001100070081
:10022000000020000000e000020032000000020098
:1002300000000000f8030200000000000040da00a7
:100240000000fe004440a900000020000000e00083
:100250000300320000002000a00188004440a800f4
:100260000000060091018800800078000000eb008b
:1002700015003700e280400032a0b4009101ba00be
:10028000e280400032a0b4009102ba00e280400057
:1002900032a0b4000002eb00472bde00f507b200ed
:1002a000602ce10004003a000059eb008301e900f2
:1002b000fdff3e00040037006128e100010032002c
:1002c0000082eb00040007001101ba000200e00008
:1002d000e8ff3a00000006003159ba008301e90046
:1002e0000c0032002159ba008301e90008003200f5
:1002f0000400e00003003a00e280400032a0b400b5
:10030000f5ff370011d9ba008301e900faff3a007e
:100310008100e800e180400032a0b4000000060047
:10032000ff3ffc00f7438000070078001143800086
:1003300020020200000000000044880009002000a4
:100340000700780001438000200202000000000046
:1003500000805400104488000000fc0000000600eb
:1003600030158800a022a800a002ae00feff3700d2
:10037000a002aa00001480004100de000000060078
:10038000ff3ffc0030302000b00102000000000000
:100390008003780020202000b0010200000000004f
:1003a00000047800854480000538e10013003c001b
:1003b0000540e10011003c00c1bbde0041c4de008d
:1003c000088043004180de00a04288009142800006
:1003d000200202000000000080007800e04380005e
:1003e000e206020000000000d1428000200202006c
:1003f0000000000000458800010037008980a80047
:100400000000fc0000000600ff3ffc0000448000ec
:1004100011438000200202000000000080047800e8
:100420001044800001438000200202000000000010
:1004300080835400f74388000000fc0000000600a1
:1004400000027800810278001301c0004100c8005a
:10045000f60020000600c800100180000000060021
:10046000ff3ffc0001005000be020200000000003f
:1004700000027800820278001301c0004100c80029
:100480007802020000000000be020200000000002e
:1004900000047800f942800009004200be02020018
:1004a0000000000000027800f0428800830278001b
:1004b0001301c0004100c8007802020000000000e3
:1004c000be02020000000000800478000900440021
:1004d000ba428000cb4280000a80e6000a00780021
:1004e0000b00e6000b0078004380de002e00370092
:1004f0004220ef0060026a000a0033002a018000f7
:100500000a00e00018003a001a0180000a00e0002a
:1005100018003200020009004555de0012003a00c2
:10052000140037002a018000fbff2f000a00e000c2
:1005300001003a000f0037000b50e10007003a00bd
:100540001a0180000a00e0000a00320002000900df
:100550004555de0001003200060037001a0228006f
:100560001a01880003003700fafd27001a018800ed
:10057000000037001001800000000600fafd230093
:100580001b022c000a00e10003003d000b00e1000b
:1005900003003400030037000a0078000100370030
:1005a0000b007800000006000000fc0000000600c0
:1005b000ff3ffc00d5428000f043800000835200e2
:1005c00005004000f402020000000000b00e8800a8
:1005d0000600780005004000f40202000000000060
:1005e000c00e8800040037000000e00001003c005d
:1005f00000002000000006000000fc0000000600d3
:100600000600fa00200798000000eb00000f7800b9
:100610000c0037000000eb001007980004003700c2
:100620000060fe001e0090000000e8001007980027
:100630009e009000e0822600808f5000f8ff360078
:100640001e0fe8002e0090009e0f1000f1ff3900f1
:100650000080fa00000006000000fa00e402a90091
:10066000e422a900e442a900e462a900e4c2a900ce
:10067000011c200091407800c0cfb30000c0600092
:100680000014a000c0e1b700210e80000000280087
:1006900000806000116f200001007000200e8800b3
:1006a000c801a900c821a900c841a900c881a900a2
:1006b000c8a1a900c8c1a900ca41a900ccc1bf00f6
:1006c000f043b20001c8b30001407000cce1b700b4
:1006d000c11c20009140780000ccb30000c0600035
:1006e000a040b300cce1b700d201a900d221a900fb
:1006f000d241a90030de20001008880005e1a900e1
:10070000205320006008880011e1a900c00d2500d9
:100710007008880013e1a90040032d00d00888006c
:100720001fe1a90030de2000e008880021e1a900d7
:10073000012a20009140780000ceb30000c0700074
:10074000a0e2b700a062a900112a20009140780021
:10075000c0cfb30000c060000014a000a1e2b70049
:100760000000eb0010158800512a2000914078000d
:1007700000ceb30000c060000014a000a5e2b700e6
:10078000412a20009140780000ccb30000c06000f6
:100790005040b300a4e2b7003001280040158800a3
:1007a0000000eb0050158800a1e2a80081e0a9003c
:1007b000aac0bf007040b300aae0b7009180a800b3
:1007c0008c60a8008cc0a9005109200091407800dd
:1007d000f0c8b30000c0600001c6b3000140700063
:1007e00095e0b70090e0a9000080fa000000060044
:1007f0000000fa0098ff07002201070084c0bf0034
:100800000044b2000004e0005f003200ff3ffc0043
:10081000514480000043800009ff0700f043880036
:100820000000fc00befe0700004480006044880019
:100830001044800070448800ff3ffc0080002000ce
:10084000c7fe0700800078008042800000805000d2
:10085000f04388000000fc00f143800090448000d9
:10086000808f5000010034008980a800f14380008f
:10087000a0448000808f500001003d008980a800c6
:10088000a7fe0700c0438000f0428800b04380000c
:10089000a24380000144800064448000800178000d
:1008a00004007800eefe0700c0438800d0438000bb
:1008b000f0428800b0438000a243800011448000d1
:1008c000744480008001780004007800e4fe070092
:1008d000d043880060458000b0448800d144800047
:1008e000c04380001f0107006045880070458000fc
:1008f000b0448800d1448000d04380001901070033
:1009000070458800614580005045800000804000af
:100910000044880001448000d0428000808f500055
:1009200002003500d042800000448800014480006d
:10093000e0428000808f500002003c00e0428000d6
:1009400000448800704580001044880011448000f5
:10095000d0428000808f500002003500d0428000dd
:100960001044880011448000e0428000808f5000d5
:1009700002003c00e042800010448800a2fe070014
:100980000bff070084c0a90084c0bf0001c8b300ea
:10099000014060000004e00045003200ff3ffc0021
:1009a000500020006efe070080007800804280002a
:1009b00000805000f04388000000fc0058fe070053
:1009c00000448000e0438800ff3ffc00f1438000ca
:1009d000004380009afe0700f04388000000fc00fe
:1009e00080458000b0448800e1448000f0438000ee
:1009f000dc0007008045880040448000f042880009
:100a000030448000224480008145800080017800cd
:100a10000000eb0092fe0700404488004144800043
:100a200030438000808f500002003500304380004a
:100a3000404488004144800040438000808f500043
:100a400002003c0040438000404488009045800004
:100a5000f0428800c0458000b2458000a14580007a
:100a6000d445800080017800040078007cfe0700f7
:100a7000904588009145800090448000808f500010
:100a80000200350090448000904588009145800028
:100a9000a0448000808f500002003c00a0448000f1
:100aa00090458800904580005044880084e0a9006b
:100ab00086c0bf000042b2000004e0003a003200ed
:100ac0002ffe0700a0428000b0448800c14480008f
:100ad000a0428000a3000700d04588005045800058
:100ae000b0448800c1448000004580009d0007009c
:100af00050458800104580000000e800104588003f
:100b0000204580000000e0000a003a001145800006
:100b1000f0448000808f50000600350070072000f0
:100b2000400e880010002000204588000000eb00e7
:100b300010458800204580000000e00019003200c8
:100b40000145800030458000808f50000100350055
:100b50008980a8000145800040458000808f5000ba
:100b600001003c008980a800004580000000e000f2
:100b700001003a008980a800a04580000000e8003c
:100b8000a0458800a1458000e0458000808f50008e
:100b900002003500e0458000a04588000000eb0021
:100ba0001045880086a0a9000060fe0013ff3700f2
:100bb00000a0fe003600f800849fbe00869fbe00a5
:100bc0000000fa0051438000404480000080400053
:100bd00020438800204380006101b9006043800009
:100be0007143800002004000838048006043880019
:100bf000714388006243800073438000804380001b
:100c000091438000800f5100818f5900080035000a
:100c10000000eb000043880080eb270010438800b1
:100c20006000b8006043880071438800010037000d
:100c3000540007008460a9000080fa004f03be0042
:100c40004f02be003600f9000080fe0000400600a2
:100c5000801f78000000fa00c1e1a9000000eb004d
:100c6000400e8800e622a900e642a900e662a9003b
:100c7000e6c2a9008980a9000080fa004f00780030
:100c8000004006000000fa00200e8000d0428800dc
:100c9000200e80000000ea00e0428800d042800080
:100ca0004300dd00b0428800d142800080ff2f0069
:100cb0000088b900c04288000000eb00400e8800a8
:100cc000c1e1a90010002000900e8800e001200082
:100cd0004bfe0700a1e2a800e602a800f0002000f9
:100ce00047fe0700e0e020009dfd070080428800ed
:100cf000e602a900e001200041fe0700e622a8006c
:100d0000e00120003efe0700d0428000b00e8800c7
:100d1000d0428000c00e8800d0428000d00e8800f3
:100d2000e642a8004001200035fe0700e662a80068
:100d30004001200032fe0700e6c2a800e0012000ca
:100d40002ffe0700c1e1a80005e1a80011e1a800fd
:100d500013e1a8001fe1a80021e1a9000080fa002a
:100d600000000600ff3ffc00b2448000020050007b
:100d70002002020000000000020040000000fc0011
:100d800000000600ff3ffc00094380001043800084
:100d90002143800020020200000000000080440087
:100da0001043880019438000214380002002020084
:100db0000000000000805400004388000000fc0098
:100dc0000000060000027800810278000500e000c3
:100dd000010032000300370060026a001000330097
:100de00011003700120009000520d900040030006e
:100df000110228000100e100090034000b00370057
:100e000060026a0003003300e0826a0004003300dd
:100e100002003700e0826a0001003b000200370058
:100e20001002280001003700f0fd27000000060036
:020000040000fa
:0200000401f009
:04000000f7ff000006
:020000040000fa
:0200000401f009
:04000400c0ff000039
:020000040000fa
:0200000401f009
:04000800dfff000016
:020000040000fa
:100008006a0700006a0700006a0700006a07000024
:100018006a0700006a0700006a0700006a07000014
:100028006a0700006a0700006a070000d805000098
:100038006a0700006a0700006a0700006a070000f4
:100048006a0700006a0700006a0700006a070000e4
:100058006a0700006a0700006a0700006a070000d4
:100068006a0700006a0700006a0700006a070000c4
:100078006a0700006a0700006a0700006a070000b4
:100088006a0700006a0700006a0700006a070000a4
:100098006a0700006a0700006a0700006a07000094
:1000a8006a0700006a0700006a0700006a07000084
:1000b8006a0700006a0700006a0700006a07000074
:1000c8006a0700006a0700006a0700006a07000064
:1000d800280600006a0700006a0700006a07000097
:1000e8006a0700006a0700006a0700006a07000044
:0800f8006a0700006a0700001e
:020000040000fa
:100108006a0700006a0700006a0700006a07000023
:100118006a0700006a0700006a0700006a07000013
:100128006a0700006a0700006a070000d805000097
:100138006a0700006a0700006a0700006a070000f3
:100148006a0700006a0700006a0700006a070000e3
:100158006a0700006a0700006a0700006a070000d3
:100168006a0700006a0700006a0700006a070000c3
:100178006a0700006a0700006a0700006a070000b3
:100188006a0700006a0700006a0700006a070000a3
:100198006a0700006a0700006a0700006a07000093
:1001a8006a0700006a0700006a0700006a07000083
:1001b8006a0700006a0700006a0700006a07000073
:1001c8006a0700006a0700006a0700006a07000063
:1001d800280600006a0700006a0700006a07000096
:1001e8006a0700006a0700006a0700006a07000043
:0801f8006a0700006a0700001d
:020000040000fa
:100e3000500800006e0000000200000000000e00dc
:100e4000740000000000000000000000000000002e
:100e500000000000b87e0000002d0000d3ff5c0001
:100e600005e823000300e80023030000120003004c
:100e70000000000000000000000000000000000072
:100e8000001b000003000000000000000000000044
:100e9000005078004015c000ea000000e80311008f
:100ea00001370000e8030000000000000000a4007b
:100eb000065cf900000000000000000000000000d7
:100ec000000000001200030000000000ef3f0000df
:040ed000000000001e
:020000040000fa
:080ed4000040da000000fe00fe
:00000001FF
